{
  "contractName": "Drawing",
  "abi": [
    {
      "constant": true,
      "inputs": [],
      "name": "name",
      "outputs": [
        {
          "name": "",
          "type": "string"
        }
      ],
      "payable": false,
      "stateMutability": "view",
      "type": "function"
    },
    {
      "constant": true,
      "inputs": [],
      "name": "currentState",
      "outputs": [
        {
          "name": "",
          "type": "uint8"
        }
      ],
      "payable": false,
      "stateMutability": "view",
      "type": "function"
    },
    {
      "constant": true,
      "inputs": [],
      "name": "revealBlockNumber",
      "outputs": [
        {
          "name": "",
          "type": "uint256"
        }
      ],
      "payable": false,
      "stateMutability": "view",
      "type": "function"
    },
    {
      "constant": true,
      "inputs": [],
      "name": "rule",
      "outputs": [
        {
          "name": "",
          "type": "string"
        }
      ],
      "payable": false,
      "stateMutability": "view",
      "type": "function"
    },
    {
      "constant": true,
      "inputs": [
        {
          "name": "",
          "type": "uint256"
        }
      ],
      "name": "participants",
      "outputs": [
        {
          "name": "",
          "type": "uint32"
        }
      ],
      "payable": false,
      "stateMutability": "view",
      "type": "function"
    },
    {
      "constant": true,
      "inputs": [],
      "name": "lockedSeed",
      "outputs": [
        {
          "name": "",
          "type": "bytes32"
        }
      ],
      "payable": false,
      "stateMutability": "view",
      "type": "function"
    },
    {
      "constant": false,
      "inputs": [],
      "name": "renounceOwnership",
      "outputs": [],
      "payable": false,
      "stateMutability": "nonpayable",
      "type": "function"
    },
    {
      "constant": true,
      "inputs": [],
      "name": "numWinners",
      "outputs": [
        {
          "name": "",
          "type": "uint32"
        }
      ],
      "payable": false,
      "stateMutability": "view",
      "type": "function"
    },
    {
      "constant": true,
      "inputs": [],
      "name": "owner",
      "outputs": [
        {
          "name": "",
          "type": "address"
        }
      ],
      "payable": false,
      "stateMutability": "view",
      "type": "function"
    },
    {
      "constant": true,
      "inputs": [],
      "name": "isOwner",
      "outputs": [
        {
          "name": "",
          "type": "bool"
        }
      ],
      "payable": false,
      "stateMutability": "view",
      "type": "function"
    },
    {
      "constant": true,
      "inputs": [
        {
          "name": "",
          "type": "uint256"
        }
      ],
      "name": "winners",
      "outputs": [
        {
          "name": "",
          "type": "uint32"
        }
      ],
      "payable": false,
      "stateMutability": "view",
      "type": "function"
    },
    {
      "constant": true,
      "inputs": [],
      "name": "blockHash",
      "outputs": [
        {
          "name": "",
          "type": "bytes32"
        }
      ],
      "payable": false,
      "stateMutability": "view",
      "type": "function"
    },
    {
      "constant": false,
      "inputs": [
        {
          "name": "newOwner",
          "type": "address"
        }
      ],
      "name": "transferOwnership",
      "outputs": [],
      "payable": false,
      "stateMutability": "nonpayable",
      "type": "function"
    },
    {
      "inputs": [
        {
          "name": "_numWinners",
          "type": "uint32"
        },
        {
          "name": "_name",
          "type": "string"
        }
      ],
      "payable": false,
      "stateMutability": "nonpayable",
      "type": "constructor"
    },
    {
      "anonymous": false,
      "inputs": [
        {
          "indexed": false,
          "name": "rule",
          "type": "string"
        },
        {
          "indexed": false,
          "name": "startBlockNumber",
          "type": "uint256"
        },
        {
          "indexed": false,
          "name": "lockedSeed",
          "type": "bytes32"
        }
      ],
      "name": "EnrollmentPeriodStarted",
      "type": "event"
    },
    {
      "anonymous": false,
      "inputs": [
        {
          "indexed": false,
          "name": "blockNumber",
          "type": "uint256"
        }
      ],
      "name": "EnrollmentPeriodEnded",
      "type": "event"
    },
    {
      "anonymous": false,
      "inputs": [
        {
          "indexed": false,
          "name": "participants",
          "type": "uint32[]"
        }
      ],
      "name": "ParticipantsEnrolled",
      "type": "event"
    },
    {
      "anonymous": false,
      "inputs": [
        {
          "indexed": false,
          "name": "winners",
          "type": "uint32[]"
        }
      ],
      "name": "WinnersSelected",
      "type": "event"
    },
    {
      "anonymous": false,
      "inputs": [
        {
          "indexed": true,
          "name": "previousOwner",
          "type": "address"
        },
        {
          "indexed": true,
          "name": "newOwner",
          "type": "address"
        }
      ],
      "name": "OwnershipTransferred",
      "type": "event"
    },
    {
      "constant": false,
      "inputs": [
        {
          "name": "_rule",
          "type": "string"
        },
        {
          "name": "_lockedSeed",
          "type": "bytes32"
        }
      ],
      "name": "startEnrollment",
      "outputs": [],
      "payable": false,
      "stateMutability": "nonpayable",
      "type": "function"
    },
    {
      "constant": false,
      "inputs": [],
      "name": "endEnrollment",
      "outputs": [],
      "payable": false,
      "stateMutability": "nonpayable",
      "type": "function"
    },
    {
      "constant": false,
      "inputs": [],
      "name": "calculateWinners",
      "outputs": [],
      "payable": false,
      "stateMutability": "nonpayable",
      "type": "function"
    },
    {
      "constant": false,
      "inputs": [
        {
          "name": "_participants",
          "type": "uint32[]"
        }
      ],
      "name": "adminBatchEnroll",
      "outputs": [],
      "payable": false,
      "stateMutability": "nonpayable",
      "type": "function"
    }
  ],
  "bytecode": "0x60806040526000805460a060020a60ff02191690553480156200002157600080fd5b506040516200124538038062001245833981018060405260408110156200004757600080fd5b8151602083018051919392830192916401000000008111156200006957600080fd5b820160208101848111156200007d57600080fd5b81516401000000008111828201871017156200009857600080fd5b505060008054600160a060020a0319163317808255604051929550600160a060020a0316935091507f8be0079c531659141344cd1fd0a4f28419497f9722a3daafe3b4186f6b6457e0908290a36004805463ffffffff191663ffffffff841617905580516200010f90600590602084019062000118565b505050620001bd565b828054600181600116156101000203166002900490600052602060002090601f016020900481019282601f106200015b57805160ff19168380011785556200018b565b828001600101855582156200018b579182015b828111156200018b5782518255916020019190600101906200016e565b50620001999291506200019d565b5090565b620001ba91905b80821115620001995760008155600101620001a4565b90565b61107880620001cd6000396000f3fe608060405234801561001057600080fd5b5060043610610128576000357c0100000000000000000000000000000000000000000000000000000000900480636db04343116100bf5780638f32d59b1161008e5780638f32d59b146102ec578063a2fb117514610308578063da70208b14610325578063f22a195e14610395578063f2fde38b1461039d57610128565b80636db04343146102b0578063715018a6146102b85780638b7bcc86146102c05780638da5cb5b146102c857610128565b80631eaeda03116100fb5780631eaeda031461025057806325e3d5221461026a57806335c1d3491461027257806352140d32146102a857610128565b8063011bc2e11461012d57806306fdde03146101375780630c3f6acf146101b45780630dbda406146101e0575b600080fd5b6101356103c3565b005b61013f610794565b6040805160208082528351818301528351919283929083019185019080838360005b83811015610179578181015183820152602001610161565b50505050905090810190601f1680156101a65780820380516001836020036101000a031916815260200191505b509250505060405180910390f35b6101bc610822565b604051808260038111156101cc57fe5b60ff16815260200191505060405180910390f35b610135600480360360408110156101f657600080fd5b81019060208101813564010000000081111561021157600080fd5b82018360208201111561022357600080fd5b8035906020019184600183028401116401000000008311171561024557600080fd5b919350915035610832565b6102586109e7565b60408051918252519081900360200190f35b61013f6109ed565b61028f6004803603602081101561028857600080fd5b5035610a48565b6040805163ffffffff9092168252519081900360200190f35b610135610a7f565b610258610b91565b610135610b97565b61028f610c38565b6102d0610c44565b60408051600160a060020a039092168252519081900360200190f35b6102f4610c54565b604080519115158252519081900360200190f35b61028f6004803603602081101561031e57600080fd5b5035610c65565b6101356004803603602081101561033b57600080fd5b81019060208101813564010000000081111561035657600080fd5b82018360208201111561036857600080fd5b8035906020019184602083028401116401000000008311171561038a57600080fd5b509092509050610c72565b610258610def565b610135600480360360208110156103b357600080fd5b5035600160a060020a0316610df5565b6103cb610c54565b61040d576040805160e560020a62461bcd028152602060048201819052602482015260008051602061102d833981519152604482015290519081900360640190fd5b600260005460a060020a900460ff16600381111561042757fe5b146104665760405160e560020a62461bcd028152600401808060200182810382526029815260200180610f946029913960400191505060405180910390fd5b600154406003819055600254600454600754919092189163ffffffff90811691908116821115610494578091505b60608163ffffffff166040519080825280602002602001820160405280156104c6578160200160208202803883390190505b50905060005b8263ffffffff168163ffffffff1610156105105780828263ffffffff16815181106104f357fe5b63ffffffff909216602092830291909101909101526001016104cc565b5060608363ffffffff16604051908082528060200260200182016040528015610543578160200160208202803883390190505b5090506000805b8563ffffffff168163ffffffff1610156106b257600063ffffffff8616888161056f57fe5b0690506007858263ffffffff168151811061058657fe5b602002602001015163ffffffff168154811061059e57fe5b90600052602060002090600891828204019190066004029054906101000a900463ffffffff16925082848363ffffffff16815181106105d957fe5b63ffffffff92831660209182029290920101526008805460018101825560008290529081047ff3f7a9fe364faab93b216da50a3214154f22a0a2b415b23a84c8169e8b636ee301805486841660046007909416939093026101000a9283029284021916919091179055855160001997909701968691881690811061065957fe5b6020026020010151858263ffffffff168151811061067357fe5b63ffffffff909216602092830291909101820152604080518083019a909a528051808b038301815299810190528851980197909720965060010161054a565b506000805474ff0000000000000000000000000000000000000000191674030000000000000000000000000000000000000000179055604080516020808252600880549183018290527f1975d47da35e014d6352a6ef022842993b98924ad4cf54e626a1709b514d24eb9390929182918201908490801561077e57602002820191906000526020600020906000905b82829054906101000a900463ffffffff1663ffffffff16815260200190600401906020826003010492830192600103820291508084116107415790505b50509250505060405180910390a1505050505050565b6005805460408051602060026001851615610100026000190190941693909304601f8101849004840282018401909252818152929183018282801561081a5780601f106107ef5761010080835404028352916020019161081a565b820191906000526020600020905b8154815290600101906020018083116107fd57829003601f168201915b505050505081565b60005460a060020a900460ff1681565b61083a610c54565b61087c576040805160e560020a62461bcd028152602060048201819052602482015260008051602061102d833981519152604482015290519081900360640190fd5b6000805460a060020a900460ff16600381111561089557fe5b146108ea576040805160e560020a62461bcd02815260206004820152601d60248201527f44726177696e67206d75737420626520696e206f70656e207374617465000000604482015290519081900360640190fd5b60028190556108fb60068484610efb565b506000805474ff0000000000000000000000000000000000000000191660a060020a179055600280546040805143602082018190529181018390526060808252600680546000196101006001831615020116959095049082018190527f3d0eae904f99b889c969398f7071193001b55a5d52d98674759ea95c92a5035d9493919081906080820190869080156109d25780601f106109a7576101008083540402835291602001916109d2565b820191906000526020600020905b8154815290600101906020018083116109b557829003601f168201915b505094505050505060405180910390a1505050565b60015481565b6006805460408051602060026001851615610100026000190190941693909304601f8101849004840282018401909252818152929183018282801561081a5780601f106107ef5761010080835404028352916020019161081a565b60078181548110610a5557fe5b9060005260206000209060089182820401919006600402915054906101000a900463ffffffff1681565b610a87610c54565b610ac9576040805160e560020a62461bcd028152602060048201819052602482015260008051602061102d833981519152604482015290519081900360640190fd5b600160005460a060020a900460ff166003811115610ae357fe5b14610b225760405160e560020a62461bcd028152600401808060200182810382526023815260200180610fe36023913960400191505060405180910390fd5b6000805474ff000000000000000000000000000000000000000019167402000000000000000000000000000000000000000017905543600181905560408051918252517f61d01f445b1be0f9e2fc60c01f95d3722dc225e1338b8644b23a581b51495a389181900360200190a1565b60025481565b610b9f610c54565b610be1576040805160e560020a62461bcd028152602060048201819052602482015260008051602061102d833981519152604482015290519081900360640190fd5b60008054604051600160a060020a03909116907f8be0079c531659141344cd1fd0a4f28419497f9722a3daafe3b4186f6b6457e0908390a36000805473ffffffffffffffffffffffffffffffffffffffff19169055565b60045463ffffffff1681565b600054600160a060020a03165b90565b600054600160a060020a0316331490565b60088181548110610a5557fe5b610c7a610c54565b610cbc576040805160e560020a62461bcd028152602060048201819052602482015260008051602061102d833981519152604482015290519081900360640190fd5b600160005460a060020a900460ff166003811115610cd657fe5b14610d155760405160e560020a62461bcd0281526004018080602001828103825260278152602001806110066027913960400191505060405180910390fd5b60005b63ffffffff8116821115610d8757600783838363ffffffff16818110610d3a57fe5b83546001818101865560009586526020958690206008830401805460046007909416939093026101000a63ffffffff97909402959095013586168302929095021916179091555001610d18565b507f6a4aa30be571bef1f1a62e6ad3c218047dd84c3ec31ec44c3673e87d4561ea46828260405180806020018281038252848482818152602001925060200280828437600083820152604051601f909101601f19169092018290039550909350505050a15050565b60035481565b610dfd610c54565b610e3f576040805160e560020a62461bcd028152602060048201819052602482015260008051602061102d833981519152604482015290519081900360640190fd5b610e4881610e4b565b50565b600160a060020a038116610e935760405160e560020a62461bcd028152600401808060200182810382526026815260200180610fbd6026913960400191505060405180910390fd5b60008054604051600160a060020a03808516939216917f8be0079c531659141344cd1fd0a4f28419497f9722a3daafe3b4186f6b6457e091a36000805473ffffffffffffffffffffffffffffffffffffffff1916600160a060020a0392909216919091179055565b828054600181600116156101000203166002900490600052602060002090601f016020900481019282601f10610f3c5782800160ff19823516178555610f69565b82800160010185558215610f69579182015b82811115610f69578235825591602001919060010190610f4e565b50610f75929150610f79565b5090565b610c5191905b80821115610f755760008155600101610f7f56fe44726177696e67206d75737420626520696e20656e726f6c6c6d656e7420656e6465642073746174654f776e61626c653a206e6577206f776e657220697320746865207a65726f206164647265737344726177696e67206d75737420626520696e20656e726f6c6c6d656e7420737461746544726177696e67206d75737420626520696e2074686520656e726f6c6c6d656e742073746174654f776e61626c653a2063616c6c6572206973206e6f7420746865206f776e6572a165627a7a7230582095a7423ad0972159a0fc07f3e425fd0286f225ec0f1f54c13a1ba8283fad60d30029",
  "source": "pragma solidity ^0.5.0;\n\nimport \"@openzeppelin/contracts/ownership/Ownable.sol\";\n\ncontract Drawing is Ownable {\n    event EnrollmentPeriodStarted(\n        string rule,\n        uint256 startBlockNumber,\n        bytes32 lockedSeed\n    );\n    event EnrollmentPeriodEnded(uint256 blockNumber);\n    event ParticipantsEnrolled(uint32[] participants);\n    event WinnersSelected(uint32[] winners);\n\n    enum DrawingState {\n        Open,\n        EnrollmentStarted,\n        EnrollmentEnded,\n        WinnersCalculated\n    }\n\n    DrawingState public currentState = DrawingState.Open;\n    uint256 public revealBlockNumber;\n    bytes32 public lockedSeed;\n    bytes32 public blockHash;\n    uint32 public numWinners;\n    string public name;\n    string public rule;\n\n    uint32[] public participants;\n    uint32[] public winners;\n\n    constructor(uint32 _numWinners, string memory _name) public {\n        numWinners = _numWinners;\n        name = _name;\n    }\n\n    function startEnrollment(string calldata _rule, bytes32 _lockedSeed)\n        external\n        onlyOwner\n    {\n        require(\n            currentState == DrawingState.Open,\n            \"Drawing must be in open state\"\n        );\n        lockedSeed = _lockedSeed;\n        rule = _rule;\n        currentState = DrawingState.EnrollmentStarted;\n        emit EnrollmentPeriodStarted(rule, block.number, lockedSeed);\n    }\n\n    function endEnrollment() external onlyOwner {\n        require(\n            currentState == DrawingState.EnrollmentStarted,\n            \"Drawing must be in enrollment state\"\n        );\n\n        currentState = DrawingState.EnrollmentEnded;\n        revealBlockNumber = block.number;\n        emit EnrollmentPeriodEnded(block.number);\n    }\n\n    function calculateWinners() external onlyOwner {\n        require(\n            currentState == DrawingState.EnrollmentEnded,\n            \"Drawing must be in enrollment ended state\"\n        );\n\n        blockHash = blockhash(revealBlockNumber);\n        bytes32 seed = blockHash ^ lockedSeed;\n\n        uint32 need = numWinners;\n        uint32 count = uint32(participants.length);\n        if (need > count) {\n            need = count;\n        }\n\n        uint32[] memory peoples = new uint32[](count);\n        for (uint32 i = 0; i < count; ++i) {\n            peoples[i] = i;\n        }\n\n        uint32[] memory mWinners = new uint32[](need);\n        uint32 curWinner;\n        for (uint32 i = 0; i < need; i++) {\n            uint32 winnerIdx = uint32(uint256(seed) % count);\n            curWinner = participants[peoples[winnerIdx]];\n            mWinners[i] = curWinner;\n            winners.push(curWinner);\n            count--;\n            peoples[winnerIdx] = peoples[count];\n            seed = keccak256(abi.encodePacked(seed));\n        }\n\n        currentState = DrawingState.WinnersCalculated;\n\n        emit WinnersSelected(winners);\n    }\n\n    function adminBatchEnroll(uint32[] calldata _participants)\n        external\n        onlyOwner\n    {\n        require(\n            currentState == DrawingState.EnrollmentStarted,\n            \"Drawing must be in the enrollment state\"\n        );\n\n        for (uint32 i = 0; i < _participants.length; i++) {\n            participants.push(_participants[i]);\n        }\n        emit ParticipantsEnrolled(_participants);\n    }\n}\n",
  "sourcePath": "",
  "compiler": {
    "name": "solc",
    "version": "0.5.8+commit.23d335f2.Emscripten.clang"
  },
  "schemaVersion": "3.0.16",
  "updatedAt": "2020-10-22T11:05:32.957Z",
  "devdoc": {
    "methods": {
      "isOwner()": {
        "details": "Returns true if the caller is the current owner."
      },
      "owner()": {
        "details": "Returns the address of the current owner."
      },
      "renounceOwnership()": {
        "details": "Leaves the contract without owner. It will not be possible to call `onlyOwner` functions anymore. Can only be called by the current owner.     * > Note: Renouncing ownership will leave the contract without an owner, thereby removing any functionality that is only available to the owner."
      },
      "transferOwnership(address)": {
        "details": "Transfers ownership of the contract to a new account (`newOwner`). Can only be called by the current owner."
      }
    }
  },
  "userdoc": {
    "methods": {}
  }
}